{
  "_format": "hh-sol-artifact-1",
  "contractName": "MyToken",
  "sourceName": "contracts/MyToken.sol",
  "abi": [
    {
      "inputs": [
        {
          "internalType": "string",
          "name": "name_",
          "type": "string"
        },
        {
          "internalType": "string",
          "name": "symbol_",
          "type": "string"
        },
        {
          "internalType": "uint8",
          "name": "decimals_",
          "type": "uint8"
        },
        {
          "internalType": "uint256",
          "name": "initialSupply",
          "type": "uint256"
        },
        {
          "internalType": "address",
          "name": "initialOwner",
          "type": "address"
        }
      ],
      "stateMutability": "nonpayable",
      "type": "constructor"
    },
    {
      "inputs": [
        {
          "internalType": "address",
          "name": "spender",
          "type": "address"
        },
        {
          "internalType": "uint256",
          "name": "allowance",
          "type": "uint256"
        },
        {
          "internalType": "uint256",
          "name": "needed",
          "type": "uint256"
        }
      ],
      "name": "ERC20InsufficientAllowance",
      "type": "error"
    },
    {
      "inputs": [
        {
          "internalType": "address",
          "name": "sender",
          "type": "address"
        },
        {
          "internalType": "uint256",
          "name": "balance",
          "type": "uint256"
        },
        {
          "internalType": "uint256",
          "name": "needed",
          "type": "uint256"
        }
      ],
      "name": "ERC20InsufficientBalance",
      "type": "error"
    },
    {
      "inputs": [
        {
          "internalType": "address",
          "name": "approver",
          "type": "address"
        }
      ],
      "name": "ERC20InvalidApprover",
      "type": "error"
    },
    {
      "inputs": [
        {
          "internalType": "address",
          "name": "receiver",
          "type": "address"
        }
      ],
      "name": "ERC20InvalidReceiver",
      "type": "error"
    },
    {
      "inputs": [
        {
          "internalType": "address",
          "name": "sender",
          "type": "address"
        }
      ],
      "name": "ERC20InvalidSender",
      "type": "error"
    },
    {
      "inputs": [
        {
          "internalType": "address",
          "name": "spender",
          "type": "address"
        }
      ],
      "name": "ERC20InvalidSpender",
      "type": "error"
    },
    {
      "inputs": [
        {
          "internalType": "address",
          "name": "owner",
          "type": "address"
        }
      ],
      "name": "OwnableInvalidOwner",
      "type": "error"
    },
    {
      "inputs": [
        {
          "internalType": "address",
          "name": "account",
          "type": "address"
        }
      ],
      "name": "OwnableUnauthorizedAccount",
      "type": "error"
    },
    {
      "anonymous": false,
      "inputs": [
        {
          "indexed": true,
          "internalType": "address",
          "name": "owner",
          "type": "address"
        },
        {
          "indexed": true,
          "internalType": "address",
          "name": "spender",
          "type": "address"
        },
        {
          "indexed": false,
          "internalType": "uint256",
          "name": "value",
          "type": "uint256"
        }
      ],
      "name": "Approval",
      "type": "event"
    },
    {
      "anonymous": false,
      "inputs": [
        {
          "indexed": true,
          "internalType": "address",
          "name": "previousOwner",
          "type": "address"
        },
        {
          "indexed": true,
          "internalType": "address",
          "name": "newOwner",
          "type": "address"
        }
      ],
      "name": "OwnershipTransferred",
      "type": "event"
    },
    {
      "anonymous": false,
      "inputs": [
        {
          "indexed": true,
          "internalType": "address",
          "name": "from",
          "type": "address"
        },
        {
          "indexed": true,
          "internalType": "address",
          "name": "to",
          "type": "address"
        },
        {
          "indexed": false,
          "internalType": "uint256",
          "name": "value",
          "type": "uint256"
        }
      ],
      "name": "Transfer",
      "type": "event"
    },
    {
      "inputs": [
        {
          "internalType": "address",
          "name": "owner",
          "type": "address"
        },
        {
          "internalType": "address",
          "name": "spender",
          "type": "address"
        }
      ],
      "name": "allowance",
      "outputs": [
        {
          "internalType": "uint256",
          "name": "",
          "type": "uint256"
        }
      ],
      "stateMutability": "view",
      "type": "function"
    },
    {
      "inputs": [
        {
          "internalType": "address",
          "name": "spender",
          "type": "address"
        },
        {
          "internalType": "uint256",
          "name": "value",
          "type": "uint256"
        }
      ],
      "name": "approve",
      "outputs": [
        {
          "internalType": "bool",
          "name": "",
          "type": "bool"
        }
      ],
      "stateMutability": "nonpayable",
      "type": "function"
    },
    {
      "inputs": [
        {
          "internalType": "address",
          "name": "account",
          "type": "address"
        }
      ],
      "name": "balanceOf",
      "outputs": [
        {
          "internalType": "uint256",
          "name": "",
          "type": "uint256"
        }
      ],
      "stateMutability": "view",
      "type": "function"
    },
    {
      "inputs": [
        {
          "internalType": "address[]",
          "name": "recipients",
          "type": "address[]"
        },
        {
          "internalType": "uint256[]",
          "name": "amounts",
          "type": "uint256[]"
        }
      ],
      "name": "batchDistribute",
      "outputs": [],
      "stateMutability": "nonpayable",
      "type": "function"
    },
    {
      "inputs": [
        {
          "internalType": "uint256",
          "name": "amount",
          "type": "uint256"
        }
      ],
      "name": "burn",
      "outputs": [],
      "stateMutability": "nonpayable",
      "type": "function"
    },
    {
      "inputs": [
        {
          "internalType": "address",
          "name": "account",
          "type": "address"
        },
        {
          "internalType": "uint256",
          "name": "amount",
          "type": "uint256"
        }
      ],
      "name": "burnFrom",
      "outputs": [],
      "stateMutability": "nonpayable",
      "type": "function"
    },
    {
      "inputs": [],
      "name": "decimals",
      "outputs": [
        {
          "internalType": "uint8",
          "name": "",
          "type": "uint8"
        }
      ],
      "stateMutability": "view",
      "type": "function"
    },
    {
      "inputs": [
        {
          "internalType": "address",
          "name": "to",
          "type": "address"
        },
        {
          "internalType": "uint256",
          "name": "amount",
          "type": "uint256"
        }
      ],
      "name": "mint",
      "outputs": [],
      "stateMutability": "nonpayable",
      "type": "function"
    },
    {
      "inputs": [],
      "name": "name",
      "outputs": [
        {
          "internalType": "string",
          "name": "",
          "type": "string"
        }
      ],
      "stateMutability": "view",
      "type": "function"
    },
    {
      "inputs": [],
      "name": "owner",
      "outputs": [
        {
          "internalType": "address",
          "name": "",
          "type": "address"
        }
      ],
      "stateMutability": "view",
      "type": "function"
    },
    {
      "inputs": [],
      "name": "renounceOwnership",
      "outputs": [],
      "stateMutability": "nonpayable",
      "type": "function"
    },
    {
      "inputs": [],
      "name": "symbol",
      "outputs": [
        {
          "internalType": "string",
          "name": "",
          "type": "string"
        }
      ],
      "stateMutability": "view",
      "type": "function"
    },
    {
      "inputs": [],
      "name": "totalSupply",
      "outputs": [
        {
          "internalType": "uint256",
          "name": "",
          "type": "uint256"
        }
      ],
      "stateMutability": "view",
      "type": "function"
    },
    {
      "inputs": [
        {
          "internalType": "address",
          "name": "to",
          "type": "address"
        },
        {
          "internalType": "uint256",
          "name": "value",
          "type": "uint256"
        }
      ],
      "name": "transfer",
      "outputs": [
        {
          "internalType": "bool",
          "name": "",
          "type": "bool"
        }
      ],
      "stateMutability": "nonpayable",
      "type": "function"
    },
    {
      "inputs": [
        {
          "internalType": "address",
          "name": "from",
          "type": "address"
        },
        {
          "internalType": "address",
          "name": "to",
          "type": "address"
        },
        {
          "internalType": "uint256",
          "name": "value",
          "type": "uint256"
        }
      ],
      "name": "transferFrom",
      "outputs": [
        {
          "internalType": "bool",
          "name": "",
          "type": "bool"
        }
      ],
      "stateMutability": "nonpayable",
      "type": "function"
    },
    {
      "inputs": [
        {
          "internalType": "address",
          "name": "newOwner",
          "type": "address"
        }
      ],
      "name": "transferOwnership",
      "outputs": [],
      "stateMutability": "nonpayable",
      "type": "function"
    }
  ],
  "bytecode": "0x60806040523480156200001157600080fd5b506040516200134038038062001340833981016040819052620000349162000369565b8085856003620000458382620004a8565b506004620000548282620004a8565b5050506001600160a01b0381166200008757604051631e4fbdf760e01b8152600060048201526024015b60405180910390fd5b6200009281620000e1565b506005805460ff60a01b1916600160a01b60ff8616021790558115620000d657620000d681620000c485600a62000689565b620000d09085620006a1565b62000133565b5050505050620006d1565b600580546001600160a01b038381166001600160a01b0319831681179093556040519116919082907f8be0079c531659141344cd1fd0a4f28419497f9722a3daafe3b4186f6b6457e090600090a35050565b6001600160a01b0382166200015f5760405163ec442f0560e01b8152600060048201526024016200007e565b6200016d6000838362000171565b5050565b6001600160a01b038316620001a0578060026000828254620001949190620006bb565b90915550620002149050565b6001600160a01b03831660009081526020819052604090205481811015620001f55760405163391434e360e21b81526001600160a01b038516600482015260248101829052604481018390526064016200007e565b6001600160a01b03841660009081526020819052604090209082900390555b6001600160a01b038216620002325760028054829003905562000251565b6001600160a01b03821660009081526020819052604090208054820190555b816001600160a01b0316836001600160a01b03167fddf252ad1be2c89b69c2b068fc378daa952ba7f163c4a11628f55a4df523b3ef836040516200029791815260200190565b60405180910390a3505050565b634e487b7160e01b600052604160045260246000fd5b600082601f830112620002cc57600080fd5b81516001600160401b0380821115620002e957620002e9620002a4565b604051601f8301601f19908116603f01168101908282118183101715620003145762000314620002a4565b816040528381526020925086838588010111156200033157600080fd5b600091505b8382101562000355578582018301518183018401529082019062000336565b600093810190920192909252949350505050565b600080600080600060a086880312156200038257600080fd5b85516001600160401b03808211156200039a57600080fd5b620003a889838a01620002ba565b96506020880151915080821115620003bf57600080fd5b50620003ce88828901620002ba565b945050604086015160ff81168114620003e657600080fd5b6060870151608088015191945092506001600160a01b03811681146200040b57600080fd5b809150509295509295909350565b600181811c908216806200042e57607f821691505b6020821081036200044f57634e487b7160e01b600052602260045260246000fd5b50919050565b601f821115620004a357600081815260208120601f850160051c810160208610156200047e5750805b601f850160051c820191505b818110156200049f578281556001016200048a565b5050505b505050565b81516001600160401b03811115620004c457620004c4620002a4565b620004dc81620004d5845462000419565b8462000455565b602080601f831160018114620005145760008415620004fb5750858301515b600019600386901b1c1916600185901b1785556200049f565b600085815260208120601f198616915b82811015620005455788860151825594840194600190910190840162000524565b5085821015620005645787850151600019600388901b60f8161c191681555b5050505050600190811b01905550565b634e487b7160e01b600052601160045260246000fd5b600181815b80851115620005cb578160001904821115620005af57620005af62000574565b80851615620005bd57918102915b93841c93908002906200058f565b509250929050565b600082620005e45750600162000683565b81620005f35750600062000683565b81600181146200060c5760028114620006175762000637565b600191505062000683565b60ff8411156200062b576200062b62000574565b50506001821b62000683565b5060208310610133831016604e8410600b84101617156200065c575081810a62000683565b6200066883836200058a565b80600019048211156200067f576200067f62000574565b0290505b92915050565b60006200069a60ff841683620005d3565b9392505050565b808202811582820484141762000683576200068362000574565b8082018082111562000683576200068362000574565b610c5f80620006e16000396000f3fe608060405234801561001057600080fd5b50600436106101005760003560e01c8063715018a611610097578063a9059cbb11610066578063a9059cbb14610219578063ad8bc26b1461022c578063dd62ed3e1461023f578063f2fde38b1461027857600080fd5b8063715018a6146101db57806379cc6790146101e35780638da5cb5b146101f657806395d89b411461021157600080fd5b8063313ce567116100d3578063313ce5671461016b57806340c10f191461018a57806342966c681461019f57806370a08231146101b257600080fd5b806306fdde0314610105578063095ea7b31461012357806318160ddd1461014657806323b872dd14610158575b600080fd5b61010d61028b565b60405161011a91906109a1565b60405180910390f35b610136610131366004610a0b565b61031d565b604051901515815260200161011a565b6002545b60405190815260200161011a565b610136610166366004610a35565b610337565b600554600160a01b900460ff1660405160ff909116815260200161011a565b61019d610198366004610a0b565b61035b565b005b61019d6101ad366004610a71565b610371565b61014a6101c0366004610a8a565b6001600160a01b031660009081526020819052604090205490565b61019d61037e565b61019d6101f1366004610a0b565b610392565b6005546040516001600160a01b03909116815260200161011a565b61010d6103a7565b610136610227366004610a0b565b6103b6565b61019d61023a366004610af8565b6103c4565b61014a61024d366004610b64565b6001600160a01b03918216600090815260016020908152604080832093909416825291909152205490565b61019d610286366004610a8a565b61058c565b60606003805461029a90610b97565b80601f01602080910402602001604051908101604052809291908181526020018280546102c690610b97565b80156103135780601f106102e857610100808354040283529160200191610313565b820191906000526020600020905b8154815290600101906020018083116102f657829003601f168201915b5050505050905090565b60003361032b8185856105c7565b60019150505b92915050565b6000336103458582856105d9565b610350858585610658565b506001949350505050565b6103636106b7565b61036d82826106e4565b5050565b61037b338261071a565b50565b6103866106b7565b6103906000610750565b565b61039d8233836105d9565b61036d828261071a565b60606004805461029a90610b97565b60003361032b818585610658565b6103cc6106b7565b8281146104465760405162461bcd60e51b815260206004820152603760248201527f526563697069656e747320616e6420616d6f756e747320617272617973206d7560448201527f73742068617665207468652073616d65206c656e67746800000000000000000060648201526084015b60405180910390fd5b826104935760405162461bcd60e51b815260206004820181905260248201527f526563697069656e74732061727261792063616e6e6f7420626520656d707479604482015260640161043d565b60005b838110156105855760008585838181106104b2576104b2610bd1565b90506020020160208101906104c79190610a8a565b6001600160a01b03160361052b5760405162461bcd60e51b815260206004820152602560248201527f43616e6e6f74206469737472696275746520746f20746865207a65726f206164604482015264647265737360d81b606482015260840161043d565b61057385858381811061054057610540610bd1565b90506020020160208101906105559190610a8a565b84848481811061056757610567610bd1565b905060200201356106e4565b8061057d81610bfd565b915050610496565b5050505050565b6105946106b7565b6001600160a01b0381166105be57604051631e4fbdf760e01b81526000600482015260240161043d565b61037b81610750565b6105d483838360016107a2565b505050565b6001600160a01b03838116600090815260016020908152604080832093861683529290522054600019811015610652578181101561064357604051637dc7a0d960e11b81526001600160a01b0384166004820152602481018290526044810183905260640161043d565b610652848484840360006107a2565b50505050565b6001600160a01b03831661068257604051634b637e8f60e11b81526000600482015260240161043d565b6001600160a01b0382166106ac5760405163ec442f0560e01b81526000600482015260240161043d565b6105d4838383610877565b6005546001600160a01b031633146103905760405163118cdaa760e01b815233600482015260240161043d565b6001600160a01b03821661070e5760405163ec442f0560e01b81526000600482015260240161043d565b61036d60008383610877565b6001600160a01b03821661074457604051634b637e8f60e11b81526000600482015260240161043d565b61036d82600083610877565b600580546001600160a01b038381166001600160a01b0319831681179093556040519116919082907f8be0079c531659141344cd1fd0a4f28419497f9722a3daafe3b4186f6b6457e090600090a35050565b6001600160a01b0384166107cc5760405163e602df0560e01b81526000600482015260240161043d565b6001600160a01b0383166107f657604051634a1406b160e11b81526000600482015260240161043d565b6001600160a01b038085166000908152600160209081526040808320938716835292905220829055801561065257826001600160a01b0316846001600160a01b03167f8c5be1e5ebec7d5bd14f71427d1e84f3dd0314c0f7b2291e5b200ac8c7c3b9258460405161086991815260200190565b60405180910390a350505050565b6001600160a01b0383166108a25780600260008282546108979190610c16565b909155506109149050565b6001600160a01b038316600090815260208190526040902054818110156108f55760405163391434e360e21b81526001600160a01b0385166004820152602481018290526044810183905260640161043d565b6001600160a01b03841660009081526020819052604090209082900390555b6001600160a01b0382166109305760028054829003905561094f565b6001600160a01b03821660009081526020819052604090208054820190555b816001600160a01b0316836001600160a01b03167fddf252ad1be2c89b69c2b068fc378daa952ba7f163c4a11628f55a4df523b3ef8360405161099491815260200190565b60405180910390a3505050565b600060208083528351808285015260005b818110156109ce578581018301518582016040015282016109b2565b506000604082860101526040601f19601f8301168501019250505092915050565b80356001600160a01b0381168114610a0657600080fd5b919050565b60008060408385031215610a1e57600080fd5b610a27836109ef565b946020939093013593505050565b600080600060608486031215610a4a57600080fd5b610a53846109ef565b9250610a61602085016109ef565b9150604084013590509250925092565b600060208284031215610a8357600080fd5b5035919050565b600060208284031215610a9c57600080fd5b610aa5826109ef565b9392505050565b60008083601f840112610abe57600080fd5b50813567ffffffffffffffff811115610ad657600080fd5b6020830191508360208260051b8501011115610af157600080fd5b9250929050565b60008060008060408587031215610b0e57600080fd5b843567ffffffffffffffff80821115610b2657600080fd5b610b3288838901610aac565b90965094506020870135915080821115610b4b57600080fd5b50610b5887828801610aac565b95989497509550505050565b60008060408385031215610b7757600080fd5b610b80836109ef565b9150610b8e602084016109ef565b90509250929050565b600181811c90821680610bab57607f821691505b602082108103610bcb57634e487b7160e01b600052602260045260246000fd5b50919050565b634e487b7160e01b600052603260045260246000fd5b634e487b7160e01b600052601160045260246000fd5b600060018201610c0f57610c0f610be7565b5060010190565b8082018082111561033157610331610be756fea2646970667358221220c729d75e17e68b34840a11775b15e6a6343f5f4f40e01c53dae0ba729f39d63864736f6c63430008140033",
  "linkReferences": {},
  "deployedLinkReferences": {}
}